{
  "transactions": [
    {
      "hash": "0xbc8043cab852adbcf66d960d1436f370d75bc6da9898b4106b2c8014d1f452ab",
      "transactionType": "CALL",
      "contractName": "JBController3_1",
      "contractAddress": "0x1d260DE91233e650F136Bf35f8A4ea1F2b68aDB6",
      "function": "launchProjectFor(address,(string,uint256),(uint256,uint256,uint256,address),((bool,bool,bool),uint256,uint256,uint256,bool,bool,bool,bool,bool,bool,bool,bool,bool,bool,bool,bool,address,uint256),uint256,(uint256,(bool,bool,uint256,uint256,address,uint256,address)[])[],(address,address,uint256,uint256,uint256,uint256)[],address[],string):(uint256)",
      "arguments": [
        "0x712bA76321a1b4fC4C2Cea6bdd455D25673Ad981",
        "(testDominantJuice #1, 1)",
        "(1800, 1000000000000000000000000, 0, 0x0000000000000000000000000000000000000000)",
        "((false, false, true), 0, 0, 0, false, true, true, true, false, false, false, false, false, false, true, false, 0xa9E390E216E072106B989fcc8a41D3858f4dAAd7, 0)",
        "1688955264",
        "[]",
        "[]",
        "[0x82129d4109625F94582bDdF6101a8Cd1a27919f5]",
        ""
      ],
      "transaction": {
        "type": "0x02",
        "from": "0x712ba76321a1b4fc4c2cea6bdd455d25673ad981",
        "to": "0x1d260de91233e650f136bf35f8a4ea1f2b68adb6",
        "gas": "0x79231",
        "value": "0x0",
        "data": "0xb3c52673000000000000000000000000712ba76321a1b4fc4c2cea6bdd455d25673ad98100000000000000000000000000000000000000000000000000000000000003e0000000000000000000000000000000000000000000000000000000000000070800000000000000000000000000000000000000000000d3c21bcecceda100000000000000000000000000000000000000000000000000000000000000000000000000000000000000000000000000000000000000000000000000000000000000000000000000000000000000000000000000000000000000000000000000000000000000000000000000000000000000000000000000000000000000000000000000000000000000000000000000000000000000000000000000000000000001000000000000000000000000000000000000000000000000000000000000000000000000000000000000000000000000000000000000000000000000000000000000000000000000000000000000000000000000000000000000000000000000000000000000000000000000000000000000000000000000000000000000000000000000000000000000000000000000000000000000000000000000000000010000000000000000000000000000000000000000000000000000000000000001000000000000000000000000000000000000000000000000000000000000000100000000000000000000000000000000000000000000000000000000000000000000000000000000000000000000000000000000000000000000000000000000000000000000000000000000000000000000000000000000000000000000000000000000000000000000000000000000000000000000000000000000000000000000000000000000000000000000000000000000000000000000000000000000000000000000000000000000000000000000000000000000000000000000000000000000000000000000000000000000000000000000000000000000000000010000000000000000000000000000000000000000000000000000000000000000000000000000000000000000a9e390e216e072106b989fcc8a41d3858f4daad700000000000000000000000000000000000000000000000000000000000000000000000000000000000000000000000000000000000000000000000064ab69800000000000000000000000000000000000000000000000000000000000000460000000000000000000000000000000000000000000000000000000000000048000000000000000000000000000000000000000000000000000000000000004a000000000000000000000000000000000000000000000000000000000000004e000000000000000000000000000000000000000000000000000000000000000400000000000000000000000000000000000000000000000000000000000000001000000000000000000000000000000000000000000000000000000000000001474657374446f6d696e616e744a7569636520233100000000000000000000000000000000000000000000000000000000000000000000000000000000000000000000000000000000000000000000000000000000000000000000000000000000000000000000000000000000000000000000000000000000000000000000000100000000000000000000000082129d4109625f94582bddf6101a8cd1a27919f50000000000000000000000000000000000000000000000000000000000000000",
        "nonce": "0x4b",
        "accessList": []
      },
      "additionalContracts": [],
      "isFixedGasLimit": false
    },
    {
      "hash": "0xed91bee60a92507752d8747c50ac069601e510cdb211c90116a760b57a1960fe",
      "transactionType": "CALL",
      "contractName": null,
      "contractAddress": "0xa9E390E216E072106B989fcc8a41D3858f4dAAd7",
      "function": null,
      "arguments": null,
      "transaction": {
        "type": "0x02",
        "from": "0x712ba76321a1b4fc4c2cea6bdd455d25673ad981",
        "to": "0xa9e390e216e072106b989fcc8a41d3858f4daad7",
        "gas": "0x596dd",
        "value": "0x0",
        "data": "0x5e6dafba000000000000000000000000000000000000000000000000000000000000046000000000000000000000000000000000000000000000000000005af3107a4000000000000000000000000000000000000000000000000000000000e8d4a510000000000000000000000000000000000000000000000000000000000000000002",
        "nonce": "0x4c",
        "accessList": []
      },
      "additionalContracts": [],
      "isFixedGasLimit": false
    }
  ],
  "receipts": [
    {
      "transactionHash": "0xbc8043cab852adbcf66d960d1436f370d75bc6da9898b4106b2c8014d1f452ab",
      "transactionIndex": "0x1",
      "blockHash": "0x7937b6c7e6204aac7a308f7a4319188eb95b00ee970eaee9c29ccb85b12ea685",
      "blockNumber": "0x8e35a9",
      "from": "0x712bA76321a1b4fC4C2Cea6bdd455D25673Ad981",
      "to": "0x1d260DE91233e650F136Bf35f8A4ea1F2b68aDB6",
      "cumulativeGasUsed": "0x57f52",
      "gasUsed": "0x52d4a",
      "contractAddress": null,
      "logs": [
        {
          "address": "0x21263a042aFE4bAE34F08Bb318056C181bD96D3b",
          "topics": [
            "0xddf252ad1be2c89b69c2b068fc378daa952ba7f163c4a11628f55a4df523b3ef",
            "0x0000000000000000000000000000000000000000000000000000000000000000",
            "0x000000000000000000000000712ba76321a1b4fc4c2cea6bdd455d25673ad981",
            "0x0000000000000000000000000000000000000000000000000000000000000460"
          ],
          "data": "0x",
          "blockHash": "0x7937b6c7e6204aac7a308f7a4319188eb95b00ee970eaee9c29ccb85b12ea685",
          "blockNumber": "0x8e35a9",
          "transactionHash": "0xbc8043cab852adbcf66d960d1436f370d75bc6da9898b4106b2c8014d1f452ab",
          "transactionIndex": "0x1",
          "logIndex": "0x0",
          "removed": false
        },
        {
          "address": "0x21263a042aFE4bAE34F08Bb318056C181bD96D3b",
          "topics": [
            "0xa1c6fd563bcbc3222f6031d7c26ff58cd6c701abff0bfffe652d055ce40629d4",
            "0x0000000000000000000000000000000000000000000000000000000000000460",
            "0x000000000000000000000000712ba76321a1b4fc4c2cea6bdd455d25673ad981"
          ],
          "data": "0x00000000000000000000000000000000000000000000000000000000000000400000000000000000000000001d260de91233e650f136bf35f8a4ea1f2b68adb600000000000000000000000000000000000000000000000000000000000000400000000000000000000000000000000000000000000000000000000000000001000000000000000000000000000000000000000000000000000000000000001474657374446f6d696e616e744a75696365202331000000000000000000000000",
          "blockHash": "0x7937b6c7e6204aac7a308f7a4319188eb95b00ee970eaee9c29ccb85b12ea685",
          "blockNumber": "0x8e35a9",
          "transactionHash": "0xbc8043cab852adbcf66d960d1436f370d75bc6da9898b4106b2c8014d1f452ab",
          "transactionIndex": "0x1",
          "logIndex": "0x1",
          "removed": false
        },
        {
          "address": "0x8E05bcD2812E1449f0EC3aE24E2C395F533d9A99",
          "topics": [
            "0x7f9a7dcb234c909a09de2f344661ad9e5b24067adb97c908647c2edcbb121c30",
            "0x0000000000000000000000000000000000000000000000000000000000000460",
            "0x0000000000000000000000001d260de91233e650f136bf35f8a4ea1f2b68adb6"
          ],
          "data": "0x0000000000000000000000001d260de91233e650f136bf35f8a4ea1f2b68adb6",
          "blockHash": "0x7937b6c7e6204aac7a308f7a4319188eb95b00ee970eaee9c29ccb85b12ea685",
          "blockNumber": "0x8e35a9",
          "transactionHash": "0xbc8043cab852adbcf66d960d1436f370d75bc6da9898b4106b2c8014d1f452ab",
          "transactionIndex": "0x1",
          "logIndex": "0x2",
          "removed": false
        },
        {
          "address": "0xB9Ee9d8203467f6EC0eAC81163d210bd1a7d3b55",
          "topics": [
            "0xf1bd4f3fcb4e0b193abc7e4002c0284e25086269a02de2e4c52045a91f647037",
            "0x0000000000000000000000000000000000000000000000000000000064ab6998",
            "0x0000000000000000000000000000000000000000000000000000000000000460",
            "0x0000000000000000000000000000000000000000000000000000000000000000"
          ],
          "data": "0x",
          "blockHash": "0x7937b6c7e6204aac7a308f7a4319188eb95b00ee970eaee9c29ccb85b12ea685",
          "blockNumber": "0x8e35a9",
          "transactionHash": "0xbc8043cab852adbcf66d960d1436f370d75bc6da9898b4106b2c8014d1f452ab",
          "transactionIndex": "0x1",
          "logIndex": "0x3",
          "removed": false
        },
        {
          "address": "0xB9Ee9d8203467f6EC0eAC81163d210bd1a7d3b55",
          "topics": [
            "0x1175572e9e7787125bbb2c1175e626d6fa90191342319fa2c35d8bd194a8a1b6",
            "0x0000000000000000000000000000000000000000000000000000000064ab6998",
            "0x0000000000000000000000000000000000000000000000000000000000000460"
          ],
          "data": "0x000000000000000000000000000000000000000000000000000000000000070800000000000000000000000000000000000000000000d3c21bcecceda100000000000000000000000000000000000000000000000000000000000000000000000000000000000000000000000000000000000000000000000000000000000000000a9e390e216e072106b989fcc8a41d3858f4daad740e2710271000000004010000000000000000000000000000000000000000000000000000000064ab69980000000000000000000000001d260de91233e650f136bf35f8a4ea1f2b68adb6",
          "blockHash": "0x7937b6c7e6204aac7a308f7a4319188eb95b00ee970eaee9c29ccb85b12ea685",
          "blockNumber": "0x8e35a9",
          "transactionHash": "0xbc8043cab852adbcf66d960d1436f370d75bc6da9898b4106b2c8014d1f452ab",
          "transactionIndex": "0x1",
          "logIndex": "0x4",
          "removed": false
        },
        {
          "address": "0x8E05bcD2812E1449f0EC3aE24E2C395F533d9A99",
          "topics": [
            "0xb648241d83df6540fc10f2acc641e4bf80a1e84e7ae2f1f6b0ad204b8fee635b",
            "0x0000000000000000000000000000000000000000000000000000000000000460"
          ],
          "data": "0x00000000000000000000000000000000000000000000000000000000000000400000000000000000000000001d260de91233e650f136bf35f8a4ea1f2b68adb6000000000000000000000000000000000000000000000000000000000000000100000000000000000000000082129d4109625f94582bddf6101a8cd1a27919f5",
          "blockHash": "0x7937b6c7e6204aac7a308f7a4319188eb95b00ee970eaee9c29ccb85b12ea685",
          "blockNumber": "0x8e35a9",
          "transactionHash": "0xbc8043cab852adbcf66d960d1436f370d75bc6da9898b4106b2c8014d1f452ab",
          "transactionIndex": "0x1",
          "logIndex": "0x5",
          "removed": false
        },
        {
          "address": "0x1d260DE91233e650F136Bf35f8A4ea1F2b68aDB6",
          "topics": [
            "0xf3e6948ba8b32d557363ea08470121c47c0127659aed09320812174d373afef2"
          ],
          "data": "0x0000000000000000000000000000000000000000000000000000000064ab699800000000000000000000000000000000000000000000000000000000000004600000000000000000000000000000000000000000000000000000000000000080000000000000000000000000712ba76321a1b4fc4c2cea6bdd455d25673ad9810000000000000000000000000000000000000000000000000000000000000000",
          "blockHash": "0x7937b6c7e6204aac7a308f7a4319188eb95b00ee970eaee9c29ccb85b12ea685",
          "blockNumber": "0x8e35a9",
          "transactionHash": "0xbc8043cab852adbcf66d960d1436f370d75bc6da9898b4106b2c8014d1f452ab",
          "transactionIndex": "0x1",
          "logIndex": "0x6",
          "removed": false
        }
      ],
      "status": "0x1",
      "logsBloom": "0x0000000000000000000100000000000000000200000000000000008000000000400000000000000000000000000000000000000400000000000000040000000000000200000000000000000800000008000000000000080000000000008000000200440002000000000000000000080000000000000800004000009000000000000000000000000000000000000000100000140000000000000002010000000000000000000000000000000008000000000000000010000000a00001001000000000200220000000000000008000000000000000004000000000000010086000000000000000000004020002040000000000100000000000000000000010a000",
      "type": "0x2",
      "effectiveGasPrice": "0xce55d4c7"
    },
    {
      "transactionHash": "0xed91bee60a92507752d8747c50ac069601e510cdb211c90116a760b57a1960fe",
      "transactionIndex": "0x2",
      "blockHash": "0x7937b6c7e6204aac7a308f7a4319188eb95b00ee970eaee9c29ccb85b12ea685",
      "blockNumber": "0x8e35a9",
      "from": "0x712bA76321a1b4fC4C2Cea6bdd455D25673Ad981",
      "to": "0xa9E390E216E072106B989fcc8a41D3858f4dAAd7",
      "cumulativeGasUsed": "0x98b3e",
      "gasUsed": "0x40bec",
      "contractAddress": null,
      "logs": [],
      "status": "0x1",
      "logsBloom": "0x00000000000000000000000000000000000000000000000000000000000000000000000000000000000000000000000000000000000000000000000000000000000000000000000000000000000000000000000000000000000000000000000000000000000000000000000000000000000000000000000000000000000000000000000000000000000000000000000000000000000000000000000000000000000000000000000000000000000000000000000000000000000000000000000000000000000000000000000000000000000000000000000000000000000000000000000000000000000000000000000000000000000000000000000000000000",
      "type": "0x2",
      "effectiveGasPrice": "0xce55d4c7"
    }
  ],
  "libraries": [],
  "pending": [],
  "returns": {
    "0": {
      "internal_type": "uint256",
      "value": "1120"
    }
  },
  "timestamp": 1688955297,
  "chain": 5,
  "multi": false,
  "commit": "dd316ba"
}