{
  "transactions": [
    {
      "hash": "0xd2ba9aa966555493a0d140e883ed27dd15348c9e8198e95c30afe0ae2c8023f5",
      "transactionType": "CALL",
      "contractName": "JBController3_1",
      "contractAddress": "0x1d260DE91233e650F136Bf35f8A4ea1F2b68aDB6",
      "function": "launchProjectFor(address,(string,uint256),(uint256,uint256,uint256,address),((bool,bool,bool),uint256,uint256,uint256,bool,bool,bool,bool,bool,bool,bool,bool,bool,bool,bool,bool,address,uint256),uint256,(uint256,(bool,bool,uint256,uint256,address,uint256,address)[])[],(address,address,uint256,uint256,uint256,uint256)[],address[],string):(uint256)",
      "arguments": [
        "0x712bA76321a1b4fC4C2Cea6bdd455D25673Ad981",
        "(QmZpzHK5tuNwVkm2EyJp2tVraD6xSJqdF2TE39hzinr9Bs, 0)",
        "(1800, 1000000000000000000000000, 0, 0x0000000000000000000000000000000000000000)",
        "((false, false, true), 0, 0, 0, false, true, true, true, false, false, false, false, false, false, true, false, 0x58226a843B27Cb5153797983eB6cAB5C1d338e74, 0)",
        "1689290945",
        "[]",
        "[]",
        "[0x82129d4109625F94582bDdF6101a8Cd1a27919f5]",
        ""
      ],
      "transaction": {
        "type": "0x02",
        "from": "0x712ba76321a1b4fc4c2cea6bdd455d25673ad981",
        "to": "0x1d260de91233e650f136bf35f8a4ea1f2b68adb6",
        "gas": "0x81e53",
        "value": "0x0",
        "data": "0xb3c52673000000000000000000000000712ba76321a1b4fc4c2cea6bdd455d25673ad98100000000000000000000000000000000000000000000000000000000000003e0000000000000000000000000000000000000000000000000000000000000070800000000000000000000000000000000000000000000d3c21bcecceda10000000000000000000000000000000000000000000000000000000000000000000000000000000000000000000000000000000000000000000000000000000000000000000000000000000000000000000000000000000000000000000000000000000000000000000000000000000000000000000000000000000000000000000000000000000000000000000000000000000000000000000000000000000000000100000000000000000000000000000000000000000000000000000000000000000000000000000000000000000000000000000000000000000000000000000000000000000000000000000000000000000000000000000000000000000000000000000000000000000000000000000000000000000000000000000000000000000000000000000000000000000000000000000000000000000000000000000001000000000000000000000000000000000000000000000000000000000000000100000000000000000000000000000000000000000000000000000000000000010000000000000000000000000000000000000000000000000000000000000000000000000000000000000000000000000000000000000000000000000000000000000000000000000000000000000000000000000000000000000000000000000000000000000000000000000000000000000000000000000000000000000000000000000000000000000000000000000000000000000000000000000000000000000000000000000000000000000000000000000000000000000000000000000000000000000000000000000000000000000000000000000000000000000001000000000000000000000000000000000000000000000000000000000000000000000000000000000000000058226a843b27cb5153797983eb6cab5c1d338e7400000000000000000000000000000000000000000000000000000000000000000000000000000000000000000000000000000000000000000000000064b088c1000000000000000000000000000000000000000000000000000000000000048000000000000000000000000000000000000000000000000000000000000004a000000000000000000000000000000000000000000000000000000000000004c0000000000000000000000000000000000000000000000000000000000000050000000000000000000000000000000000000000000000000000000000000000400000000000000000000000000000000000000000000000000000000000000000000000000000000000000000000000000000000000000000000000000000002e516d5a707a484b3574754e77566b6d3245794a703274567261443678534a7164463254453339687a696e7239427300000000000000000000000000000000000000000000000000000000000000000000000000000000000000000000000000000000000000000000000000000000000000000000000000000000000000000000000000000000000000000000000000000000000000000000000000000000000100000000000000000000000082129d4109625f94582bddf6101a8cd1a27919f50000000000000000000000000000000000000000000000000000000000000000",
        "nonce": "0x4e",
        "accessList": []
      },
      "additionalContracts": [],
      "isFixedGasLimit": false
    },
    {
      "hash": "0x687b54af1015c2b7d9000aaa483e753eeed37ccbe0447601ba6aa1f25aef3b3e",
      "transactionType": "CALL",
      "contractName": null,
      "contractAddress": "0x58226a843B27Cb5153797983eB6cAB5C1d338e74",
      "function": null,
      "arguments": null,
      "transaction": {
        "type": "0x02",
        "from": "0x712ba76321a1b4fc4c2cea6bdd455d25673ad981",
        "to": "0x58226a843b27cb5153797983eb6cab5c1d338e74",
        "gas": "0x53012",
        "value": "0x0",
        "data": "0x5e6dafba000000000000000000000000000000000000000000000000000000000000046700000000000000000000000000000000000000000000000000005af3107a4000000000000000000000000000000000000000000000000000000000e8d4a510000000000000000000000000000000000000000000000000000000000000000002",
        "nonce": "0x4f",
        "accessList": []
      },
      "additionalContracts": [],
      "isFixedGasLimit": false
    }
  ],
  "receipts": [],
  "libraries": [],
  "pending": [
    "0xd2ba9aa966555493a0d140e883ed27dd15348c9e8198e95c30afe0ae2c8023f5",
    "0x687b54af1015c2b7d9000aaa483e753eeed37ccbe0447601ba6aa1f25aef3b3e"
  ],
  "returns": {
    "0": {
      "internal_type": "uint256",
      "value": "1127"
    }
  },
  "timestamp": 1689204958,
  "chain": 5,
  "multi": false,
  "commit": "15d8026"
}