{
  "transactions": [
    {
      "hash": "0xbc8043cab852adbcf66d960d1436f370d75bc6da9898b4106b2c8014d1f452ab",
      "transactionType": "CALL",
      "contractName": "JBController3_1",
      "contractAddress": "0x1d260DE91233e650F136Bf35f8A4ea1F2b68aDB6",
      "function": "launchProjectFor(address,(string,uint256),(uint256,uint256,uint256,address),((bool,bool,bool),uint256,uint256,uint256,bool,bool,bool,bool,bool,bool,bool,bool,bool,bool,bool,bool,address,uint256),uint256,(uint256,(bool,bool,uint256,uint256,address,uint256,address)[])[],(address,address,uint256,uint256,uint256,uint256)[],address[],string):(uint256)",
      "arguments": [
        "0x712bA76321a1b4fC4C2Cea6bdd455D25673Ad981",
        "(testDominantJuice #1, 1)",
        "(1800, 1000000000000000000000000, 0, 0x0000000000000000000000000000000000000000)",
        "((false, false, true), 0, 0, 0, false, true, true, true, false, false, false, false, false, false, true, false, 0xa9E390E216E072106B989fcc8a41D3858f4dAAd7, 0)",
        "1688955264",
        "[]",
        "[]",
        "[0x82129d4109625F94582bDdF6101a8Cd1a27919f5]",
        ""
      ],
      "transaction": {
        "type": "0x02",
        "from": "0x712ba76321a1b4fc4c2cea6bdd455d25673ad981",
        "to": "0x1d260de91233e650f136bf35f8a4ea1f2b68adb6",
        "gas": "0x79231",
        "value": "0x0",
        "data": "0xb3c52673000000000000000000000000712ba76321a1b4fc4c2cea6bdd455d25673ad98100000000000000000000000000000000000000000000000000000000000003e0000000000000000000000000000000000000000000000000000000000000070800000000000000000000000000000000000000000000d3c21bcecceda100000000000000000000000000000000000000000000000000000000000000000000000000000000000000000000000000000000000000000000000000000000000000000000000000000000000000000000000000000000000000000000000000000000000000000000000000000000000000000000000000000000000000000000000000000000000000000000000000000000000000000000000000000000000001000000000000000000000000000000000000000000000000000000000000000000000000000000000000000000000000000000000000000000000000000000000000000000000000000000000000000000000000000000000000000000000000000000000000000000000000000000000000000000000000000000000000000000000000000000000000000000000000000000000000000000000000000000010000000000000000000000000000000000000000000000000000000000000001000000000000000000000000000000000000000000000000000000000000000100000000000000000000000000000000000000000000000000000000000000000000000000000000000000000000000000000000000000000000000000000000000000000000000000000000000000000000000000000000000000000000000000000000000000000000000000000000000000000000000000000000000000000000000000000000000000000000000000000000000000000000000000000000000000000000000000000000000000000000000000000000000000000000000000000000000000000000000000000000000000000000000000000000000000010000000000000000000000000000000000000000000000000000000000000000000000000000000000000000a9e390e216e072106b989fcc8a41d3858f4daad700000000000000000000000000000000000000000000000000000000000000000000000000000000000000000000000000000000000000000000000064ab69800000000000000000000000000000000000000000000000000000000000000460000000000000000000000000000000000000000000000000000000000000048000000000000000000000000000000000000000000000000000000000000004a000000000000000000000000000000000000000000000000000000000000004e000000000000000000000000000000000000000000000000000000000000000400000000000000000000000000000000000000000000000000000000000000001000000000000000000000000000000000000000000000000000000000000001474657374446f6d696e616e744a7569636520233100000000000000000000000000000000000000000000000000000000000000000000000000000000000000000000000000000000000000000000000000000000000000000000000000000000000000000000000000000000000000000000000000000000000000000000000100000000000000000000000082129d4109625f94582bddf6101a8cd1a27919f50000000000000000000000000000000000000000000000000000000000000000",
        "nonce": "0x4b",
        "accessList": []
      },
      "additionalContracts": [],
      "isFixedGasLimit": false
    },
    {
      "hash": "0xed91bee60a92507752d8747c50ac069601e510cdb211c90116a760b57a1960fe",
      "transactionType": "CALL",
      "contractName": null,
      "contractAddress": "0xa9E390E216E072106B989fcc8a41D3858f4dAAd7",
      "function": null,
      "arguments": null,
      "transaction": {
        "type": "0x02",
        "from": "0x712ba76321a1b4fc4c2cea6bdd455d25673ad981",
        "to": "0xa9e390e216e072106b989fcc8a41d3858f4daad7",
        "gas": "0x596dd",
        "value": "0x0",
        "data": "0x5e6dafba000000000000000000000000000000000000000000000000000000000000046000000000000000000000000000000000000000000000000000005af3107a4000000000000000000000000000000000000000000000000000000000e8d4a510000000000000000000000000000000000000000000000000000000000000000002",
        "nonce": "0x4c",
        "accessList": []
      },
      "additionalContracts": [],
      "isFixedGasLimit": false
    }
  ],
  "receipts": [],
  "libraries": [],
  "pending": [
    "0xbc8043cab852adbcf66d960d1436f370d75bc6da9898b4106b2c8014d1f452ab",
    "0xed91bee60a92507752d8747c50ac069601e510cdb211c90116a760b57a1960fe"
  ],
  "returns": {
    "0": {
      "internal_type": "uint256",
      "value": "1120"
    }
  },
  "timestamp": 1688955278,
  "chain": 5,
  "multi": false,
  "commit": "dd316ba"
}