{
  "transactions": [
    {
      "hash": "0xd2ba9aa966555493a0d140e883ed27dd15348c9e8198e95c30afe0ae2c8023f5",
      "transactionType": "CALL",
      "contractName": "JBController3_1",
      "contractAddress": "0x1d260DE91233e650F136Bf35f8A4ea1F2b68aDB6",
      "function": "launchProjectFor(address,(string,uint256),(uint256,uint256,uint256,address),((bool,bool,bool),uint256,uint256,uint256,bool,bool,bool,bool,bool,bool,bool,bool,bool,bool,bool,bool,address,uint256),uint256,(uint256,(bool,bool,uint256,uint256,address,uint256,address)[])[],(address,address,uint256,uint256,uint256,uint256)[],address[],string):(uint256)",
      "arguments": [
        "0x712bA76321a1b4fC4C2Cea6bdd455D25673Ad981",
        "(QmZpzHK5tuNwVkm2EyJp2tVraD6xSJqdF2TE39hzinr9Bs, 0)",
        "(1800, 1000000000000000000000000, 0, 0x0000000000000000000000000000000000000000)",
        "((false, false, true), 0, 0, 0, false, true, true, true, false, false, false, false, false, false, true, false, 0x58226a843B27Cb5153797983eB6cAB5C1d338e74, 0)",
        "1689290945",
        "[]",
        "[]",
        "[0x82129d4109625F94582bDdF6101a8Cd1a27919f5]",
        ""
      ],
      "transaction": {
        "type": "0x02",
        "from": "0x712ba76321a1b4fc4c2cea6bdd455d25673ad981",
        "to": "0x1d260de91233e650f136bf35f8a4ea1f2b68adb6",
        "gas": "0x81e53",
        "value": "0x0",
        "data": "0xb3c52673000000000000000000000000712ba76321a1b4fc4c2cea6bdd455d25673ad98100000000000000000000000000000000000000000000000000000000000003e0000000000000000000000000000000000000000000000000000000000000070800000000000000000000000000000000000000000000d3c21bcecceda10000000000000000000000000000000000000000000000000000000000000000000000000000000000000000000000000000000000000000000000000000000000000000000000000000000000000000000000000000000000000000000000000000000000000000000000000000000000000000000000000000000000000000000000000000000000000000000000000000000000000000000000000000000000000100000000000000000000000000000000000000000000000000000000000000000000000000000000000000000000000000000000000000000000000000000000000000000000000000000000000000000000000000000000000000000000000000000000000000000000000000000000000000000000000000000000000000000000000000000000000000000000000000000000000000000000000000000001000000000000000000000000000000000000000000000000000000000000000100000000000000000000000000000000000000000000000000000000000000010000000000000000000000000000000000000000000000000000000000000000000000000000000000000000000000000000000000000000000000000000000000000000000000000000000000000000000000000000000000000000000000000000000000000000000000000000000000000000000000000000000000000000000000000000000000000000000000000000000000000000000000000000000000000000000000000000000000000000000000000000000000000000000000000000000000000000000000000000000000000000000000000000000000000001000000000000000000000000000000000000000000000000000000000000000000000000000000000000000058226a843b27cb5153797983eb6cab5c1d338e7400000000000000000000000000000000000000000000000000000000000000000000000000000000000000000000000000000000000000000000000064b088c1000000000000000000000000000000000000000000000000000000000000048000000000000000000000000000000000000000000000000000000000000004a000000000000000000000000000000000000000000000000000000000000004c0000000000000000000000000000000000000000000000000000000000000050000000000000000000000000000000000000000000000000000000000000000400000000000000000000000000000000000000000000000000000000000000000000000000000000000000000000000000000000000000000000000000000002e516d5a707a484b3574754e77566b6d3245794a703274567261443678534a7164463254453339687a696e7239427300000000000000000000000000000000000000000000000000000000000000000000000000000000000000000000000000000000000000000000000000000000000000000000000000000000000000000000000000000000000000000000000000000000000000000000000000000000000100000000000000000000000082129d4109625f94582bddf6101a8cd1a27919f50000000000000000000000000000000000000000000000000000000000000000",
        "nonce": "0x4e",
        "accessList": []
      },
      "additionalContracts": [],
      "isFixedGasLimit": false
    },
    {
      "hash": "0x687b54af1015c2b7d9000aaa483e753eeed37ccbe0447601ba6aa1f25aef3b3e",
      "transactionType": "CALL",
      "contractName": null,
      "contractAddress": "0x58226a843B27Cb5153797983eB6cAB5C1d338e74",
      "function": null,
      "arguments": null,
      "transaction": {
        "type": "0x02",
        "from": "0x712ba76321a1b4fc4c2cea6bdd455d25673ad981",
        "to": "0x58226a843b27cb5153797983eb6cab5c1d338e74",
        "gas": "0x53012",
        "value": "0x0",
        "data": "0x5e6dafba000000000000000000000000000000000000000000000000000000000000046700000000000000000000000000000000000000000000000000005af3107a4000000000000000000000000000000000000000000000000000000000e8d4a510000000000000000000000000000000000000000000000000000000000000000002",
        "nonce": "0x4f",
        "accessList": []
      },
      "additionalContracts": [],
      "isFixedGasLimit": false
    }
  ],
  "receipts": [
    {
      "transactionHash": "0xd2ba9aa966555493a0d140e883ed27dd15348c9e8198e95c30afe0ae2c8023f5",
      "transactionIndex": "0x3",
      "blockHash": "0x07028f9f99ebe7f989eb669ebf3a109d84bd455898cd84218d66a642d442ef7e",
      "blockNumber": "0x8e742b",
      "from": "0x712bA76321a1b4fC4C2Cea6bdd455D25673Ad981",
      "to": "0x1d260DE91233e650F136Bf35f8A4ea1F2b68aDB6",
      "cumulativeGasUsed": "0x849d9",
      "gasUsed": "0x5e0ac",
      "contractAddress": null,
      "logs": [
        {
          "address": "0x21263a042aFE4bAE34F08Bb318056C181bD96D3b",
          "topics": [
            "0xddf252ad1be2c89b69c2b068fc378daa952ba7f163c4a11628f55a4df523b3ef",
            "0x0000000000000000000000000000000000000000000000000000000000000000",
            "0x000000000000000000000000712ba76321a1b4fc4c2cea6bdd455d25673ad981",
            "0x0000000000000000000000000000000000000000000000000000000000000467"
          ],
          "data": "0x",
          "blockHash": "0x07028f9f99ebe7f989eb669ebf3a109d84bd455898cd84218d66a642d442ef7e",
          "blockNumber": "0x8e742b",
          "transactionHash": "0xd2ba9aa966555493a0d140e883ed27dd15348c9e8198e95c30afe0ae2c8023f5",
          "transactionIndex": "0x3",
          "logIndex": "0x6",
          "removed": false
        },
        {
          "address": "0x21263a042aFE4bAE34F08Bb318056C181bD96D3b",
          "topics": [
            "0xa1c6fd563bcbc3222f6031d7c26ff58cd6c701abff0bfffe652d055ce40629d4",
            "0x0000000000000000000000000000000000000000000000000000000000000467",
            "0x000000000000000000000000712ba76321a1b4fc4c2cea6bdd455d25673ad981"
          ],
          "data": "0x00000000000000000000000000000000000000000000000000000000000000400000000000000000000000001d260de91233e650f136bf35f8a4ea1f2b68adb600000000000000000000000000000000000000000000000000000000000000400000000000000000000000000000000000000000000000000000000000000000000000000000000000000000000000000000000000000000000000000000002e516d5a707a484b3574754e77566b6d3245794a703274567261443678534a7164463254453339687a696e72394273000000000000000000000000000000000000",
          "blockHash": "0x07028f9f99ebe7f989eb669ebf3a109d84bd455898cd84218d66a642d442ef7e",
          "blockNumber": "0x8e742b",
          "transactionHash": "0xd2ba9aa966555493a0d140e883ed27dd15348c9e8198e95c30afe0ae2c8023f5",
          "transactionIndex": "0x3",
          "logIndex": "0x7",
          "removed": false
        },
        {
          "address": "0x8E05bcD2812E1449f0EC3aE24E2C395F533d9A99",
          "topics": [
            "0x7f9a7dcb234c909a09de2f344661ad9e5b24067adb97c908647c2edcbb121c30",
            "0x0000000000000000000000000000000000000000000000000000000000000467",
            "0x0000000000000000000000001d260de91233e650f136bf35f8a4ea1f2b68adb6"
          ],
          "data": "0x0000000000000000000000001d260de91233e650f136bf35f8a4ea1f2b68adb6",
          "blockHash": "0x07028f9f99ebe7f989eb669ebf3a109d84bd455898cd84218d66a642d442ef7e",
          "blockNumber": "0x8e742b",
          "transactionHash": "0xd2ba9aa966555493a0d140e883ed27dd15348c9e8198e95c30afe0ae2c8023f5",
          "transactionIndex": "0x3",
          "logIndex": "0x8",
          "removed": false
        },
        {
          "address": "0xB9Ee9d8203467f6EC0eAC81163d210bd1a7d3b55",
          "topics": [
            "0xf1bd4f3fcb4e0b193abc7e4002c0284e25086269a02de2e4c52045a91f647037",
            "0x0000000000000000000000000000000000000000000000000000000064af38e0",
            "0x0000000000000000000000000000000000000000000000000000000000000467",
            "0x0000000000000000000000000000000000000000000000000000000000000000"
          ],
          "data": "0x",
          "blockHash": "0x07028f9f99ebe7f989eb669ebf3a109d84bd455898cd84218d66a642d442ef7e",
          "blockNumber": "0x8e742b",
          "transactionHash": "0xd2ba9aa966555493a0d140e883ed27dd15348c9e8198e95c30afe0ae2c8023f5",
          "transactionIndex": "0x3",
          "logIndex": "0x9",
          "removed": false
        },
        {
          "address": "0xB9Ee9d8203467f6EC0eAC81163d210bd1a7d3b55",
          "topics": [
            "0x1175572e9e7787125bbb2c1175e626d6fa90191342319fa2c35d8bd194a8a1b6",
            "0x0000000000000000000000000000000000000000000000000000000064af38e0",
            "0x0000000000000000000000000000000000000000000000000000000000000467"
          ],
          "data": "0x000000000000000000000000000000000000000000000000000000000000070800000000000000000000000000000000000000000000d3c21bcecceda10000000000000000000000000000000000000000000000000000000000000000000000000000000000000000000000000000000000000000000000000000000000000000058226a843b27cb5153797983eb6cab5c1d338e7440e2710271000000004010000000000000000000000000000000000000000000000000000000064b088c10000000000000000000000001d260de91233e650f136bf35f8a4ea1f2b68adb6",
          "blockHash": "0x07028f9f99ebe7f989eb669ebf3a109d84bd455898cd84218d66a642d442ef7e",
          "blockNumber": "0x8e742b",
          "transactionHash": "0xd2ba9aa966555493a0d140e883ed27dd15348c9e8198e95c30afe0ae2c8023f5",
          "transactionIndex": "0x3",
          "logIndex": "0xa",
          "removed": false
        },
        {
          "address": "0x8E05bcD2812E1449f0EC3aE24E2C395F533d9A99",
          "topics": [
            "0xb648241d83df6540fc10f2acc641e4bf80a1e84e7ae2f1f6b0ad204b8fee635b",
            "0x0000000000000000000000000000000000000000000000000000000000000467"
          ],
          "data": "0x00000000000000000000000000000000000000000000000000000000000000400000000000000000000000001d260de91233e650f136bf35f8a4ea1f2b68adb6000000000000000000000000000000000000000000000000000000000000000100000000000000000000000082129d4109625f94582bddf6101a8cd1a27919f5",
          "blockHash": "0x07028f9f99ebe7f989eb669ebf3a109d84bd455898cd84218d66a642d442ef7e",
          "blockNumber": "0x8e742b",
          "transactionHash": "0xd2ba9aa966555493a0d140e883ed27dd15348c9e8198e95c30afe0ae2c8023f5",
          "transactionIndex": "0x3",
          "logIndex": "0xb",
          "removed": false
        },
        {
          "address": "0x1d260DE91233e650F136Bf35f8A4ea1F2b68aDB6",
          "topics": [
            "0xf3e6948ba8b32d557363ea08470121c47c0127659aed09320812174d373afef2"
          ],
          "data": "0x0000000000000000000000000000000000000000000000000000000064af38e000000000000000000000000000000000000000000000000000000000000004670000000000000000000000000000000000000000000000000000000000000080000000000000000000000000712ba76321a1b4fc4c2cea6bdd455d25673ad9810000000000000000000000000000000000000000000000000000000000000000",
          "blockHash": "0x07028f9f99ebe7f989eb669ebf3a109d84bd455898cd84218d66a642d442ef7e",
          "blockNumber": "0x8e742b",
          "transactionHash": "0xd2ba9aa966555493a0d140e883ed27dd15348c9e8198e95c30afe0ae2c8023f5",
          "transactionIndex": "0x3",
          "logIndex": "0xc",
          "removed": false
        }
      ],
      "status": "0x1",
      "logsBloom": "0x00000000000000000001000000000000200002000000000000000080000000004000000000000000000002000000000000000000000000000000000400000000000002000000000000000008000000080000000000000800000000000080000002004400020000000020000000000800000000800009000040000090000100000000000000000000000000000000001000001400000000000000020100000000000000000000000000000000080000000000000000100000002000010010000000002002200000000000000080000000000000000000000000000000100860000000000000000000000200020400000000001000000000000000000000002000",
      "type": "0x2",
      "effectiveGasPrice": "0xb7b11801"
    },
    {
      "transactionHash": "0x687b54af1015c2b7d9000aaa483e753eeed37ccbe0447601ba6aa1f25aef3b3e",
      "transactionIndex": "0x4",
      "blockHash": "0x07028f9f99ebe7f989eb669ebf3a109d84bd455898cd84218d66a642d442ef7e",
      "blockNumber": "0x8e742b",
      "from": "0x712bA76321a1b4fC4C2Cea6bdd455D25673Ad981",
      "to": "0x58226a843B27Cb5153797983eB6cAB5C1d338e74",
      "cumulativeGasUsed": "0xc0b59",
      "gasUsed": "0x3c180",
      "contractAddress": null,
      "logs": [],
      "status": "0x1",
      "logsBloom": "0x00000000000000000000000000000000000000000000000000000000000000000000000000000000000000000000000000000000000000000000000000000000000000000000000000000000000000000000000000000000000000000000000000000000000000000000000000000000000000000000000000000000000000000000000000000000000000000000000000000000000000000000000000000000000000000000000000000000000000000000000000000000000000000000000000000000000000000000000000000000000000000000000000000000000000000000000000000000000000000000000000000000000000000000000000000000",
      "type": "0x2",
      "effectiveGasPrice": "0xb7b11801"
    }
  ],
  "libraries": [],
  "pending": [],
  "returns": {
    "0": {
      "internal_type": "uint256",
      "value": "1127"
    }
  },
  "timestamp": 1689204964,
  "chain": 5,
  "multi": false,
  "commit": "15d8026"
}